{
  "transactions": [
    {
      "hash": "0xa9ef809e7e433bb912ecf3bb517baa70de0c0ead26b245cce76c1a2fce945ae2",
      "transactionType": "CALL",
      "contractName": null,
      "contractAddress": "0x779877a7b0d9e8603169ddbd7836e478b4624789",
      "function": "transferAndCall(address,uint256,bytes)",
      "arguments": [
        "0x9DdfaCa8183c41ad55329BdeeD9F6A8d53168B1B",
        "3000000000000000000",
        "0x1f6b8eca114db9b472e464ea3f1ccc22b70258a7b175dbd643358ae8bbb4f6f8"
      ],
      "transaction": {
        "from": "0x82ff0ef0428785ea9bb8eee4384925341d6bea44",
        "to": "0x779877a7b0d9e8603169ddbd7836e478b4624789",
        "gas": "0x14cbb",
        "value": "0x0",
        "input": "0x4000aea00000000000000000000000009ddfaca8183c41ad55329bdeed9f6a8d53168b1b00000000000000000000000000000000000000000000000029a2241af62c0000000000000000000000000000000000000000000000000000000000000000006000000000000000000000000000000000000000000000000000000000000000201f6b8eca114db9b472e464ea3f1ccc22b70258a7b175dbd643358ae8bbb4f6f8",
        "nonce": "0x1c",
        "chainId": "0xaa36a7"
      },
      "additionalContracts": [],
      "isFixedGasLimit": false
    }
  ],
  "receipts": [
    {
      "status": "0x1",
      "cumulativeGasUsed": "0xc38535",
      "logs": [
        {
          "address": "0x779877a7b0d9e8603169ddbd7836e478b4624789",
          "topics": [
            "0xddf252ad1be2c89b69c2b068fc378daa952ba7f163c4a11628f55a4df523b3ef",
            "0x00000000000000000000000082ff0ef0428785ea9bb8eee4384925341d6bea44",
            "0x0000000000000000000000009ddfaca8183c41ad55329bdeed9f6a8d53168b1b"
          ],
          "data": "0x00000000000000000000000000000000000000000000000029a2241af62c0000",
          "blockHash": "0x61ba51607d7c12f68ed5f4a31312adc988132b9fe552d20fd1dd9f0850782dd9",
          "blockNumber": "0x7a2678",
          "blockTimestamp": "0x67e7a25c",
          "transactionHash": "0xa9ef809e7e433bb912ecf3bb517baa70de0c0ead26b245cce76c1a2fce945ae2",
          "transactionIndex": "0x74",
          "logIndex": "0xbf",
          "removed": false
        },
        {
          "address": "0x779877a7b0d9e8603169ddbd7836e478b4624789",
          "topics": [
            "0xe19260aff97b920c7df27010903aeb9c8d2be5d310a2c67824cf3f15396e4c16",
            "0x00000000000000000000000082ff0ef0428785ea9bb8eee4384925341d6bea44",
            "0x0000000000000000000000009ddfaca8183c41ad55329bdeed9f6a8d53168b1b"
          ],
          "data": "0x00000000000000000000000000000000000000000000000029a2241af62c0000000000000000000000000000000000000000000000000000000000000000004000000000000000000000000000000000000000000000000000000000000000201f6b8eca114db9b472e464ea3f1ccc22b70258a7b175dbd643358ae8bbb4f6f8",
          "blockHash": "0x61ba51607d7c12f68ed5f4a31312adc988132b9fe552d20fd1dd9f0850782dd9",
          "blockNumber": "0x7a2678",
          "blockTimestamp": "0x67e7a25c",
          "transactionHash": "0xa9ef809e7e433bb912ecf3bb517baa70de0c0ead26b245cce76c1a2fce945ae2",
          "transactionIndex": "0x74",
          "logIndex": "0xc0",
          "removed": false
        },
        {
          "address": "0x9ddfaca8183c41ad55329bdeed9f6a8d53168b1b",
          "topics": [
            "0x1ced9348ff549fceab2ac57cd3a9de38edaaab274b725ee82c23e8fc8c4eec7a",
            "0x1f6b8eca114db9b472e464ea3f1ccc22b70258a7b175dbd643358ae8bbb4f6f8"
          ],
          "data": "0x0000000000000000000000000000000000000000000000008ac7230489e80000000000000000000000000000000000000000000000000000b469471f80140000",
          "blockHash": "0x61ba51607d7c12f68ed5f4a31312adc988132b9fe552d20fd1dd9f0850782dd9",
          "blockNumber": "0x7a2678",
          "blockTimestamp": "0x67e7a25c",
          "transactionHash": "0xa9ef809e7e433bb912ecf3bb517baa70de0c0ead26b245cce76c1a2fce945ae2",
          "transactionIndex": "0x74",
          "logIndex": "0xc1",
          "removed": false
        }
      ],
      "logsBloom": "0x00000004000000000000000000000000000000000020000000000800020000000000080002000000000000000000000000000000000002000000000000000000000000000000000000000008000000000000000000000000000020000020000008000000000000000000000000000004000000000000000000000010000040000000000000000000000000010000800000000020000000000000000000000010000000000000000000000000010000000000000000000000000004000000000000000002000000000000000000000000000000000000000100000000000000000010000000000000800000000000000000000000000000000000000000000000",
      "type": "0x2",
      "transactionHash": "0xa9ef809e7e433bb912ecf3bb517baa70de0c0ead26b245cce76c1a2fce945ae2",
      "transactionIndex": "0x74",
      "blockHash": "0x61ba51607d7c12f68ed5f4a31312adc988132b9fe552d20fd1dd9f0850782dd9",
      "blockNumber": "0x7a2678",
      "gasUsed": "0xf0e5",
      "effectiveGasPrice": "0x1aebd2d",
      "from": "0x82ff0ef0428785ea9bb8eee4384925341d6bea44",
      "to": "0x779877a7b0d9e8603169ddbd7836e478b4624789",
      "contractAddress": null
    }
  ],
  "libraries": [],
  "pending": [],
  "returns": {},
  "timestamp": 1743233629,
  "chain": 11155111,
  "commit": "bde3d68"
}