{
  "transactions": [
    {
      "hash": "0xe70f0197c772f3d1ee0d20efa3f2510139054f0bf7840d85c49ebad61ec70fea",
      "transactionType": "CALL",
      "contractName": null,
      "contractAddress": "0x9ddfaca8183c41ad55329bdeed9f6a8d53168b1b",
      "function": "addConsumer(uint256,address)",
      "arguments": [
        "14211736437725299524653069414314714541765775258341705868980757480022497097464",
        "0x22FD82dED8354C6e5E0a724F8Fd5b1467595D8CD"
      ],
      "transaction": {
        "from": "0x82ff0ef0428785ea9bb8eee4384925341d6bea44",
        "to": "0x9ddfaca8183c41ad55329bdeed9f6a8d53168b1b",
        "gas": "0x9cdb",
        "value": "0x0",
        "input": "0xbec4c08c1f6b8eca114db9b472e464ea3f1ccc22b70258a7b175dbd643358ae8bbb4f6f800000000000000000000000022fd82ded8354c6e5e0a724f8fd5b1467595d8cd",
        "nonce": "0x23",
        "chainId": "0xaa36a7"
      },
      "additionalContracts": [],
      "isFixedGasLimit": false
    }
  ],
  "receipts": [
    {
      "status": "0x1",
      "cumulativeGasUsed": "0x9a036f",
      "logs": [],
      "logsBloom": "0x00000000000000000000000000000000000000000000000000000000000000000000000000000000000000000000000000000000000000000000000000000000000000000000000000000000000000000000000000000000000000000000000000000000000000000000000000000000000000000000000000000000000000000000000000000000000000000000000000000000000000000000000000000000000000000000000000000000000000000000000000000000000000000000000000000000000000000000000000000000000000000000000000000000000000000000000000000000000000000000000000000000000000000000000000000000",
      "type": "0x2",
      "transactionHash": "0xe70f0197c772f3d1ee0d20efa3f2510139054f0bf7840d85c49ebad61ec70fea",
      "transactionIndex": "0x61",
      "blockHash": "0xe255abb3152d21c99ac492344fe4348d5f1d4916ae3e9f225d35a455c39a2aab",
      "blockNumber": "0x7aab55",
      "gasUsed": "0x7190",
      "effectiveGasPrice": "0x1c81c3",
      "from": "0x82ff0ef0428785ea9bb8eee4384925341d6bea44",
      "to": "0x9ddfaca8183c41ad55329bdeed9f6a8d53168b1b",
      "contractAddress": null
    }
  ],
  "libraries": [],
  "pending": [],
  "returns": {},
  "timestamp": 1743649631,
  "chain": 11155111,
  "commit": "75eaaa3"
}