{
  "transactions": [
    {
      "hash": "0xf1083cb9347b5e87bcdee00357b9b9a948f8eda041ff08a27b7e5f9156318524",
      "transactionType": "CALL",
      "contractName": "LinkToken",
      "contractAddress": "0x779877a7b0d9e8603169ddbd7836e478b4624789",
      "function": "transferAndCall(address,uint256,bytes)",
      "arguments": [
        "0x9DdfaCa8183c41ad55329BdeeD9F6A8d53168B1B",
        "3000000000000000000",
        "0x1f6b8eca114db9b472e464ea3f1ccc22b70258a7b175dbd643358ae8bbb4f6f8"
      ],
      "transaction": {
        "from": "0x82ff0ef0428785ea9bb8eee4384925341d6bea44",
        "to": "0x779877a7b0d9e8603169ddbd7836e478b4624789",
        "gas": "0x14cbb",
        "value": "0x0",
        "input": "0x4000aea00000000000000000000000009ddfaca8183c41ad55329bdeed9f6a8d53168b1b00000000000000000000000000000000000000000000000029a2241af62c0000000000000000000000000000000000000000000000000000000000000000006000000000000000000000000000000000000000000000000000000000000000201f6b8eca114db9b472e464ea3f1ccc22b70258a7b175dbd643358ae8bbb4f6f8",
        "nonce": "0x22",
        "chainId": "0xaa36a7"
      },
      "additionalContracts": [],
      "isFixedGasLimit": false
    }
  ],
  "receipts": [
    {
      "status": "0x1",
      "cumulativeGasUsed": "0x974f43",
      "logs": [
        {
          "address": "0x779877a7b0d9e8603169ddbd7836e478b4624789",
          "topics": [
            "0xddf252ad1be2c89b69c2b068fc378daa952ba7f163c4a11628f55a4df523b3ef",
            "0x00000000000000000000000082ff0ef0428785ea9bb8eee4384925341d6bea44",
            "0x0000000000000000000000009ddfaca8183c41ad55329bdeed9f6a8d53168b1b"
          ],
          "data": "0x00000000000000000000000000000000000000000000000029a2241af62c0000",
          "blockHash": "0x811ad3c1416b90ee82fcbbd88416d3be88ab86922e831431dfd8d3e01b044092",
          "blockNumber": "0x7aab48",
          "blockTimestamp": "0x67edfac4",
          "transactionHash": "0xf1083cb9347b5e87bcdee00357b9b9a948f8eda041ff08a27b7e5f9156318524",
          "transactionIndex": "0x6d",
          "logIndex": "0xa6",
          "removed": false
        },
        {
          "address": "0x779877a7b0d9e8603169ddbd7836e478b4624789",
          "topics": [
            "0xe19260aff97b920c7df27010903aeb9c8d2be5d310a2c67824cf3f15396e4c16",
            "0x00000000000000000000000082ff0ef0428785ea9bb8eee4384925341d6bea44",
            "0x0000000000000000000000009ddfaca8183c41ad55329bdeed9f6a8d53168b1b"
          ],
          "data": "0x00000000000000000000000000000000000000000000000029a2241af62c0000000000000000000000000000000000000000000000000000000000000000004000000000000000000000000000000000000000000000000000000000000000201f6b8eca114db9b472e464ea3f1ccc22b70258a7b175dbd643358ae8bbb4f6f8",
          "blockHash": "0x811ad3c1416b90ee82fcbbd88416d3be88ab86922e831431dfd8d3e01b044092",
          "blockNumber": "0x7aab48",
          "blockTimestamp": "0x67edfac4",
          "transactionHash": "0xf1083cb9347b5e87bcdee00357b9b9a948f8eda041ff08a27b7e5f9156318524",
          "transactionIndex": "0x6d",
          "logIndex": "0xa7",
          "removed": false
        },
        {
          "address": "0x9ddfaca8183c41ad55329bdeed9f6a8d53168b1b",
          "topics": [
            "0x1ced9348ff549fceab2ac57cd3a9de38edaaab274b725ee82c23e8fc8c4eec7a",
            "0x1f6b8eca114db9b472e464ea3f1ccc22b70258a7b175dbd643358ae8bbb4f6f8"
          ],
          "data": "0x000000000000000000000000000000000000000000000000b469471f80140000000000000000000000000000000000000000000000000000de0b6b3a76400000",
          "blockHash": "0x811ad3c1416b90ee82fcbbd88416d3be88ab86922e831431dfd8d3e01b044092",
          "blockNumber": "0x7aab48",
          "blockTimestamp": "0x67edfac4",
          "transactionHash": "0xf1083cb9347b5e87bcdee00357b9b9a948f8eda041ff08a27b7e5f9156318524",
          "transactionIndex": "0x6d",
          "logIndex": "0xa8",
          "removed": false
        }
      ],
      "logsBloom": "0x00000004000000000000000000000000000000000020000000000800020000000000080002000000000000000000000000000000000002000000000000000000000000000000000000000008000000000000000000000000000020000020000008000000000000000000000000000004000000000000000000000010000040000000000000000000000000010000800000000020000000000000000000000010000000000000000000000000010000000000000000000000000004000000000000000002000000000000000000000000000000000000000100000000000000000010000000000000800000000000000000000000000000000000000000000000",
      "type": "0x2",
      "transactionHash": "0xf1083cb9347b5e87bcdee00357b9b9a948f8eda041ff08a27b7e5f9156318524",
      "transactionIndex": "0x6d",
      "blockHash": "0x811ad3c1416b90ee82fcbbd88416d3be88ab86922e831431dfd8d3e01b044092",
      "blockNumber": "0x7aab48",
      "gasUsed": "0xf0e5",
      "effectiveGasPrice": "0x1d854b",
      "from": "0x82ff0ef0428785ea9bb8eee4384925341d6bea44",
      "to": "0x779877a7b0d9e8603169ddbd7836e478b4624789",
      "contractAddress": null
    }
  ],
  "libraries": [],
  "pending": [],
  "returns": {},
  "timestamp": 1743649475,
  "chain": 11155111,
  "commit": "75eaaa3"
}